{
    "_format": "hh-sol-artifact-1",
    "contractName": "DecentralGPTPaymentContract",
    "sourceName": "contracts/DecentralGPTPaymentContract.sol",
    "abi": [
        {
            "anonymous": false,
            "inputs": [
                {
                    "indexed": false,
                    "internalType": "uint8",
                    "name": "version",
                    "type": "uint8"
                }
            ],
            "name": "Initialized",
            "type": "event"
        },
        {
            "anonymous": false,
            "inputs": [
                {
                    "indexed": true,
                    "internalType": "address",
                    "name": "previousOwner",
                    "type": "address"
                },
                {
                    "indexed": true,
                    "internalType": "address",
                    "name": "newOwner",
                    "type": "address"
                }
            ],
            "name": "OwnershipTransferred",
            "type": "event"
        },
        {
            "inputs": [],
            "name": "amountPay",
            "outputs": [
                {
                    "internalType": "uint256",
                    "name": "",
                    "type": "uint256"
                }
            ],
            "stateMutability": "view",
            "type": "function"
        },
        {
            "inputs": [],
            "name": "dgc",
            "outputs": [
                {
                    "internalType": "contract IERC20Upgradeable",
                    "name": "",
                    "type": "address"
                }
            ],
            "stateMutability": "view",
            "type": "function"
        },
        {
            "inputs": [
                {
                    "internalType": "uint256",
                    "name": "",
                    "type": "uint256"
                }
            ],
            "name": "freeQuotas",
            "outputs": [
                {
                    "internalType": "uint256",
                    "name": "",
                    "type": "uint256"
                }
            ],
            "stateMutability": "view",
            "type": "function"
        },
        {
            "inputs": [],
            "name": "initialize",
            "outputs": [],
            "stateMutability": "nonpayable",
            "type": "function"
        },
        {
            "inputs": [],
            "name": "owner",
            "outputs": [
                {
                    "internalType": "address",
                    "name": "",
                    "type": "address"
                }
            ],
            "stateMutability": "view",
            "type": "function"
        },
        {
            "inputs": [],
            "name": "payForVip",
            "outputs": [],
            "stateMutability": "nonpayable",
            "type": "function"
        },
        {
            "inputs": [],
            "name": "price",
            "outputs": [
                {
                    "internalType": "uint256",
                    "name": "",
                    "type": "uint256"
                }
            ],
            "stateMutability": "view",
            "type": "function"
        },
        {
            "inputs": [
                {
                    "internalType": "address",
                    "name": "_account",
                    "type": "address"
                },
                {
                    "internalType": "uint256[]",
                    "name": "_types",
                    "type": "uint256[]"
                }
            ],
            "name": "remainingAmount",
            "outputs": [
                {
                    "internalType": "uint256[]",
                    "name": "",
                    "type": "uint256[]"
                }
            ],
            "stateMutability": "view",
            "type": "function"
        },
        {
            "inputs": [],
            "name": "renounceOwnership",
            "outputs": [],
            "stateMutability": "nonpayable",
            "type": "function"
        },
        {
            "inputs": [
                {
                    "internalType": "uint256[]",
                    "name": "_types",
                    "type": "uint256[]"
                }
            ],
            "name": "request",
            "outputs": [],
            "stateMutability": "nonpayable",
            "type": "function"
        },
        {
            "inputs": [
                {
                    "internalType": "address",
                    "name": "_dgc",
                    "type": "address"
                }
            ],
            "name": "setDgc",
            "outputs": [],
            "stateMutability": "nonpayable",
            "type": "function"
        },
        {
            "inputs": [
                {
                    "internalType": "uint256",
                    "name": "_type",
                    "type": "uint256"
                },
                {
                    "internalType": "uint256",
                    "name": "_value",
                    "type": "uint256"
                }
            ],
            "name": "setFreeQuotas",
            "outputs": [],
            "stateMutability": "nonpayable",
            "type": "function"
        },
        {
            "inputs": [
                {
                    "internalType": "uint256",
                    "name": "_price",
                    "type": "uint256"
                }
            ],
            "name": "setPrice",
            "outputs": [],
            "stateMutability": "nonpayable",
            "type": "function"
        },
        {
            "inputs": [
                {
                    "internalType": "uint256",
                    "name": "_fee",
                    "type": "uint256"
                }
            ],
            "name": "setVipFee",
            "outputs": [],
            "stateMutability": "nonpayable",
            "type": "function"
        },
        {
            "inputs": [
                {
                    "internalType": "uint256",
                    "name": "_type",
                    "type": "uint256"
                },
                {
                    "internalType": "uint256",
                    "name": "_value",
                    "type": "uint256"
                }
            ],
            "name": "setVipQuotas",
            "outputs": [],
            "stateMutability": "nonpayable",
            "type": "function"
        },
        {
            "inputs": [
                {
                    "internalType": "address",
                    "name": "",
                    "type": "address"
                },
                {
                    "internalType": "uint256",
                    "name": "",
                    "type": "uint256"
                },
                {
                    "internalType": "uint256",
                    "name": "",
                    "type": "uint256"
                }
            ],
            "name": "timesRequested",
            "outputs": [
                {
                    "internalType": "uint256",
                    "name": "",
                    "type": "uint256"
                }
            ],
            "stateMutability": "view",
            "type": "function"
        },
        {
            "inputs": [
                {
                    "internalType": "address",
                    "name": "newOwner",
                    "type": "address"
                }
            ],
            "name": "transferOwnership",
            "outputs": [],
            "stateMutability": "nonpayable",
            "type": "function"
        },
        {
            "inputs": [
                {
                    "internalType": "address",
                    "name": "",
                    "type": "address"
                }
            ],
            "name": "vipExpirationDates",
            "outputs": [
                {
                    "internalType": "uint256",
                    "name": "",
                    "type": "uint256"
                }
            ],
            "stateMutability": "view",
            "type": "function"
        },
        {
            "inputs": [],
            "name": "vipFee",
            "outputs": [
                {
                    "internalType": "uint256",
                    "name": "",
                    "type": "uint256"
                }
            ],
            "stateMutability": "view",
            "type": "function"
        },
        {
            "inputs": [
                {
                    "internalType": "uint256",
                    "name": "",
                    "type": "uint256"
                }
            ],
            "name": "vipQuotas",
            "outputs": [
                {
                    "internalType": "uint256",
                    "name": "",
                    "type": "uint256"
                }
            ],
            "stateMutability": "view",
            "type": "function"
        },
        {
            "inputs": [],
            "name": "withdraw",
            "outputs": [],
            "stateMutability": "nonpayable",
            "type": "function"
        }
    ],
    "bytecode": "0x608060405234801561001057600080fd5b50610ef8806100206000396000f3fe608060405234801561001057600080fd5b50600436106101375760003560e01c806391b7f5ed116100b8578063bed321b91161007c578063bed321b914610268578063c773338214610288578063c914875414610290578063d3c70bad146102c1578063e1053f4e146102e1578063f2fde38b146102ea57600080fd5b806391b7f5ed146102135780639b213fe814610226578063a035b1fe14610239578063aca8192c14610242578063b268b9ec1461025557600080fd5b8063715018a6116100ff578063715018a6146101bf578063754379c8146101c75780637ddded22146101e75780638129fc1c146101fa5780638da5cb5b1461020257600080fd5b80632f0462fa1461013c57806330cc99c71461016c578063325928381461019a5780633ccfd60b146101af57806345ff0dc5146101b7575b600080fd5b60655461014f906001600160a01b031681565b6040516001600160a01b0390911681526020015b60405180910390f35b61018c61017a366004610b65565b60696020526000908152604090205481565b604051908152602001610163565b6101ad6101a8366004610b9a565b6102fd565b005b6101ad610327565b61018c61035e565b6101ad610388565b61018c6101d5366004610b9a565b606a6020526000908152604090205481565b6101ad6101f5366004610bbc565b61039c565b6101ad6103b6565b6033546001600160a01b031661014f565b6101ad610221366004610b65565b61060f565b6101ad610234366004610bbc565b61061c565b61018c60665481565b6101ad610250366004610bde565b610636565b6101ad610263366004610b65565b610757565b61018c610276366004610b65565b60686020526000908152604090205481565b6101ad610764565b61018c61029e366004610c53565b606b60209081526000938452604080852082529284528284209052825290205481565b6102d46102cf366004610c9c565b610857565b6040516101639190610d6d565b61018c60675481565b6101ad6102f8366004610b9a565b6109e9565b610305610a5f565b606580546001600160a01b0319166001600160a01b0392909216919091179055565b61032f610a5f565b60405133904780156108fc02916000818181858888f1935050505015801561035b573d6000803e3d6000fd5b50565b6000606654606754670de0b6b3a76400006103799190610dc7565b6103839190610dde565b905090565b610390610a5f565b61039a6000610ab9565b565b6103a4610a5f565b60009182526069602052604090912055565b600054610100900460ff16158080156103d65750600054600160ff909116105b806103f05750303b1580156103f0575060005460ff166001145b6104585760405162461bcd60e51b815260206004820152602e60248201527f496e697469616c697a61626c653a20636f6e747261637420697320616c72656160448201526d191e481a5b9a5d1a585b1a5e995960921b60648201526084015b60405180910390fd5b6000805460ff19166001179055801561047b576000805461ff0019166101001790555b610483610b0b565b670de0b6b3a76400006066556729a2241af62c0000606755600a7fad6f8124f6081c2622ab3a16acd47af73d52fe87b755c3f897263c58ba3fdbd75560647f82eaf0fca2207f91f5027fcf68136c84edb7e928c081c42aa5bbc2a771c7d3768190557f7738fc943d038775bed8ef01a67b748c956896b0b810b5b4d06dc2c8632420e28190557f621935e5e2d2334e817fa0366e6727cdfbb18abed03a929d20a8be2175643efe5560696020526103e87f5843af22e99e7c98370145a5056245c244ce8ee852f4ef5e6d6a8e410a18cf41556127107fc073f36c05b6a60b24c30a48974b549770d8fa354751fb3170c9dfd8ca536add8190557f0e06b3a0ac1d519392f9d33f9b92cd5a527ceb8ad2859e7bfebef5dd54cfca9181905560036000527f56d594188730cd2db4f97166f7e9b0b9d5caa8ac32e0506fd5faeb5b224f881355801561035b576000805461ff0019169055604051600181527f7f26b83ff96e1f2b6a682f133852f6798a09c465da95921460cefb38474024989060200160405180910390a150565b610617610a5f565b606655565b610624610a5f565b60009182526068602052604090912055565b60006106753384848080602002602001604051908101604052809392919081815260200183836020028082843760009201919091525061085792505050565b905060005b8281101561075157600082828151811061069657610696610e00565b6020026020010151116106d45760405162461bcd60e51b815260040161044f906020808252600490820152637a65726f60e01b604082015260600190565b336000908152606b60205260408120906106f16201518042610dde565b8152602001908152602001600020600085858481811061071357610713610e00565b905060200201358152602001908152602001600020600081548092919061073990610e16565b9190505550808061074990610e16565b91505061067a565b50505050565b61075f610a5f565b606755565b6065546001600160a01b03166323b872dd333061077f61035e565b6040516001600160e01b031960e086901b1681526001600160a01b03938416600482015292909116602483015260448201526064016020604051808303816000875af11580156107d3573d6000803e3d6000fd5b505050506040513d601f19601f820116820180604052508101906107f79190610e2f565b50336000908152606a602052604090205442111561082e5761081c4262278d00610e51565b336000908152606a6020526040902055565b336000908152606a60205260408120805462278d009290610850908490610e51565b9091555050565b60606000825167ffffffffffffffff81111561087557610875610c86565b60405190808252806020026020018201604052801561089e578160200160208202803683370190505b50905060005b83518110156109df576001600160a01b0385166000908152606b60205260408120816108d36201518042610dde565b815260200190815260200160002060008684815181106108f5576108f5610e00565b6020026020010151815260200190815260200160002054905042606a6000886001600160a01b03166001600160a01b03168152602001908152602001600020541161097757806068600087858151811061095157610951610e00565b60200260200101518152602001908152602001600020546109729190610e64565b6109af565b806069600087858151811061098e5761098e610e00565b60200260200101518152602001908152602001600020546109af9190610e64565b8383815181106109c1576109c1610e00565b602090810291909101015250806109d781610e16565b9150506108a4565b5090505b92915050565b6109f1610a5f565b6001600160a01b038116610a565760405162461bcd60e51b815260206004820152602660248201527f4f776e61626c653a206e6577206f776e657220697320746865207a65726f206160448201526564647265737360d01b606482015260840161044f565b61035b81610ab9565b6033546001600160a01b0316331461039a5760405162461bcd60e51b815260206004820181905260248201527f4f776e61626c653a2063616c6c6572206973206e6f7420746865206f776e6572604482015260640161044f565b603380546001600160a01b038381166001600160a01b0319831681179093556040519116919082907f8be0079c531659141344cd1fd0a4f28419497f9722a3daafe3b4186f6b6457e090600090a35050565b600054610100900460ff16610b325760405162461bcd60e51b815260040161044f90610e77565b61039a600054610100900460ff16610b5c5760405162461bcd60e51b815260040161044f90610e77565b61039a33610ab9565b600060208284031215610b7757600080fd5b5035919050565b80356001600160a01b0381168114610b9557600080fd5b919050565b600060208284031215610bac57600080fd5b610bb582610b7e565b9392505050565b60008060408385031215610bcf57600080fd5b50508035926020909101359150565b60008060208385031215610bf157600080fd5b823567ffffffffffffffff80821115610c0957600080fd5b818501915085601f830112610c1d57600080fd5b813581811115610c2c57600080fd5b8660208260051b8501011115610c4157600080fd5b60209290920196919550909350505050565b600080600060608486031215610c6857600080fd5b610c7184610b7e565b95602085013595506040909401359392505050565b634e487b7160e01b600052604160045260246000fd5b60008060408385031215610caf57600080fd5b610cb883610b7e565b915060208084013567ffffffffffffffff80821115610cd657600080fd5b818601915086601f830112610cea57600080fd5b813581811115610cfc57610cfc610c86565b8060051b604051601f19603f83011681018181108582111715610d2157610d21610c86565b604052918252848201925083810185019189831115610d3f57600080fd5b938501935b82851015610d5d57843584529385019392850192610d44565b8096505050505050509250929050565b6020808252825182820181905260009190848201906040850190845b81811015610da557835183529284019291840191600101610d89565b50909695505050505050565b634e487b7160e01b600052601160045260246000fd5b80820281158282048414176109e3576109e3610db1565b600082610dfb57634e487b7160e01b600052601260045260246000fd5b500490565b634e487b7160e01b600052603260045260246000fd5b600060018201610e2857610e28610db1565b5060010190565b600060208284031215610e4157600080fd5b81518015158114610bb557600080fd5b808201808211156109e3576109e3610db1565b818103818111156109e3576109e3610db1565b6020808252602b908201527f496e697469616c697a61626c653a20636f6e7472616374206973206e6f74206960408201526a6e697469616c697a696e6760a81b60608201526080019056fea26469706673582212207d1cb9eab6ba64d8fbb2da468553afd183ae1625d98153b4bc7d3ee8872d1fa464736f6c63430008130033",
    "linkReferences": {},
    "deployedLinkReferences": {}
}